{
  "contractName": "Blacklist",
  "abi": [
    {
      "inputs": [],
      "stateMutability": "nonpayable",
      "type": "constructor"
    },
    {
      "inputs": [
        {
          "internalType": "address",
          "name": "owner",
          "type": "address"
        }
      ],
      "name": "OwnableInvalidOwner",
      "type": "error"
    },
    {
      "inputs": [
        {
          "internalType": "address",
          "name": "account",
          "type": "address"
        }
      ],
      "name": "OwnableUnauthorizedAccount",
      "type": "error"
    },
    {
      "anonymous": false,
      "inputs": [
        {
          "indexed": true,
          "internalType": "address",
          "name": "previousOwner",
          "type": "address"
        },
        {
          "indexed": true,
          "internalType": "address",
          "name": "newOwner",
          "type": "address"
        }
      ],
      "name": "OwnershipTransferred",
      "type": "event"
    },
    {
      "inputs": [],
      "name": "owner",
      "outputs": [
        {
          "internalType": "address",
          "name": "",
          "type": "address"
        }
      ],
      "stateMutability": "view",
      "type": "function"
    },
    {
      "inputs": [],
      "name": "renounceOwnership",
      "outputs": [],
      "stateMutability": "nonpayable",
      "type": "function"
    },
    {
      "inputs": [
        {
          "internalType": "address",
          "name": "newOwner",
          "type": "address"
        }
      ],
      "name": "transferOwnership",
      "outputs": [],
      "stateMutability": "nonpayable",
      "type": "function"
    },
    {
      "inputs": [
        {
          "internalType": "address[]",
          "name": "blArray",
          "type": "address[]"
        }
      ],
      "name": "setBlacklist",
      "outputs": [],
      "stateMutability": "nonpayable",
      "type": "function"
    },
    {
      "inputs": [
        {
          "internalType": "address[]",
          "name": "blArray",
          "type": "address[]"
        }
      ],
      "name": "resetBlacklist",
      "outputs": [],
      "stateMutability": "nonpayable",
      "type": "function"
    },
    {
      "inputs": [
        {
          "internalType": "address",
          "name": "account",
          "type": "address"
        }
      ],
      "name": "isBlacklisted",
      "outputs": [
        {
          "internalType": "bool",
          "name": "",
          "type": "bool"
        }
      ],
      "stateMutability": "view",
      "type": "function"
    }
  ],
  "bytecode": "0x608060405234801561000f575f80fd5b50338061003557604051631e4fbdf760e01b81525f600482015260240160405180910390fd5b61003e81610044565b50610093565b5f80546001600160a01b038381166001600160a01b0319831681178455604051919092169283917f8be0079c531659141344cd1fd0a4f28419497f9722a3daafe3b4186f6b6457e09190a35050565b6103cc806100a05f395ff3fe608060405234801561000f575f80fd5b5060043610610060575f3560e01c80637018562c14610064578063715018a6146100795780638da5cb5b14610081578063bf772491146100a0578063f2fde38b146100b3578063fe575a87146100c6575b5f80fd5b6100776100723660046102c2565b610101565b005b61007761017c565b5f546040516001600160a01b0390911681526020015b60405180910390f35b6100776100ae3660046102c2565b61018f565b6100776100c1366004610331565b610205565b6100f16100d4366004610331565b6001600160a01b03165f9081526001602052604090205460ff1690565b6040519015158152602001610097565b610109610247565b5f5b81811015610177575f60015f8585858181106101295761012961035e565b905060200201602081019061013e9190610331565b6001600160a01b0316815260208101919091526040015f20805460ff19169115159190911790558061016f81610372565b91505061010b565b505050565b610184610247565b61018d5f610273565b565b610197610247565b5f5b81811015610177576001805f8585858181106101b7576101b761035e565b90506020020160208101906101cc9190610331565b6001600160a01b0316815260208101919091526040015f20805460ff1916911515919091179055806101fd81610372565b915050610199565b61020d610247565b6001600160a01b03811661023b57604051631e4fbdf760e01b81525f60048201526024015b60405180910390fd5b61024481610273565b50565b5f546001600160a01b0316331461018d5760405163118cdaa760e01b8152336004820152602401610232565b5f80546001600160a01b038381166001600160a01b0319831681178455604051919092169283917f8be0079c531659141344cd1fd0a4f28419497f9722a3daafe3b4186f6b6457e09190a35050565b5f80602083850312156102d3575f80fd5b823567ffffffffffffffff808211156102ea575f80fd5b818501915085601f8301126102fd575f80fd5b81358181111561030b575f80fd5b8660208260051b850101111561031f575f80fd5b60209290920196919550909350505050565b5f60208284031215610341575f80fd5b81356001600160a01b0381168114610357575f80fd5b9392505050565b634e487b7160e01b5f52603260045260245ffd5b5f6001820161038f57634e487b7160e01b5f52601160045260245ffd5b506001019056fea26469706673582212206a0a32e9d479a334c5bccb2f7372500ab87b0ffc76e6b7a3e53e511157cdb26964736f6c63430008150033",
  "immutableReferences": {},
  "source": "// SPDX-License-Identifier: MIT\r\npragma solidity ^0.8.19;\r\n\r\nimport \"@openzeppelin/contracts/access/Ownable.sol\";\r\n \r\ncontract Blacklist is Ownable {\r\n    // address[] private _blacklist;\r\n    mapping(address => bool) private _blacklisted;\r\n\r\nconstructor() Ownable(msg.sender) {}\r\n\r\n\r\nfunction setBlacklist(address[] calldata blArray) external onlyOwner {\r\n    for (uint256 i = 0; i < blArray.length; i++) {\r\n        _blacklisted[blArray[i]] = true;\r\n    }\r\n}\r\n\r\n\r\nfunction resetBlacklist(address[] calldata blArray) external onlyOwner {\r\n    for (uint256 i = 0; i < blArray.length; i++) {\r\n        _blacklisted[blArray[i]] = false;\r\n    }\r\n}\r\n\r\n    function isBlacklisted(address account) public view returns (bool) {\r\n        return _blacklisted[account];\r\n    }\r\n\r\n}",
  "sourcePath": "/mnt/c/Users/vince/Desktop/MasterZ DEV/Homework1/contracts/Blacklist.sol",
  "compiler": {
    "name": "solc",
    "version": "0.8.21+commit.d9974bed.Emscripten.clang"
  },
  "schemaVersion": "3.4.16",
  "updatedAt": "2024-02-15T11:02:14.967Z",
  "devdoc": {
    "errors": {
      "OwnableInvalidOwner(address)": [
        {
          "details": "The owner is not a valid owner account. (eg. `address(0)`)"
        }
      ],
      "OwnableUnauthorizedAccount(address)": [
        {
          "details": "The caller account is not authorized to perform an operation."
        }
      ]
    },
    "kind": "dev",
    "methods": {
      "owner()": {
        "details": "Returns the address of the current owner."
      },
      "renounceOwnership()": {
        "details": "Leaves the contract without owner. It will not be possible to call `onlyOwner` functions. Can only be called by the current owner. NOTE: Renouncing ownership will leave the contract without an owner, thereby disabling any functionality that is only available to the owner."
      },
      "transferOwnership(address)": {
        "details": "Transfers ownership of the contract to a new account (`newOwner`). Can only be called by the current owner."
      }
    },
    "version": 1
  },
  "userdoc": {
    "kind": "user",
    "methods": {},
    "version": 1
  }
}