{
  "contractName": "Token",
  "abi": [
    {
      "inputs": [
        {
          "internalType": "string",
          "name": "name_",
          "type": "string"
        },
        {
          "internalType": "string",
          "name": "symbol_",
          "type": "string"
        },
        {
          "internalType": "address",
          "name": "blAddress_",
          "type": "address"
        }
      ],
      "stateMutability": "nonpayable",
      "type": "constructor"
    },
    {
      "inputs": [
        {
          "internalType": "address",
          "name": "spender",
          "type": "address"
        },
        {
          "internalType": "uint256",
          "name": "allowance",
          "type": "uint256"
        },
        {
          "internalType": "uint256",
          "name": "needed",
          "type": "uint256"
        }
      ],
      "name": "ERC20InsufficientAllowance",
      "type": "error"
    },
    {
      "inputs": [
        {
          "internalType": "address",
          "name": "sender",
          "type": "address"
        },
        {
          "internalType": "uint256",
          "name": "balance",
          "type": "uint256"
        },
        {
          "internalType": "uint256",
          "name": "needed",
          "type": "uint256"
        }
      ],
      "name": "ERC20InsufficientBalance",
      "type": "error"
    },
    {
      "inputs": [
        {
          "internalType": "address",
          "name": "approver",
          "type": "address"
        }
      ],
      "name": "ERC20InvalidApprover",
      "type": "error"
    },
    {
      "inputs": [
        {
          "internalType": "address",
          "name": "receiver",
          "type": "address"
        }
      ],
      "name": "ERC20InvalidReceiver",
      "type": "error"
    },
    {
      "inputs": [
        {
          "internalType": "address",
          "name": "sender",
          "type": "address"
        }
      ],
      "name": "ERC20InvalidSender",
      "type": "error"
    },
    {
      "inputs": [
        {
          "internalType": "address",
          "name": "spender",
          "type": "address"
        }
      ],
      "name": "ERC20InvalidSpender",
      "type": "error"
    },
    {
      "inputs": [
        {
          "internalType": "address",
          "name": "owner",
          "type": "address"
        }
      ],
      "name": "OwnableInvalidOwner",
      "type": "error"
    },
    {
      "inputs": [
        {
          "internalType": "address",
          "name": "account",
          "type": "address"
        }
      ],
      "name": "OwnableUnauthorizedAccount",
      "type": "error"
    },
    {
      "anonymous": false,
      "inputs": [
        {
          "indexed": true,
          "internalType": "address",
          "name": "owner",
          "type": "address"
        },
        {
          "indexed": true,
          "internalType": "address",
          "name": "spender",
          "type": "address"
        },
        {
          "indexed": false,
          "internalType": "uint256",
          "name": "value",
          "type": "uint256"
        }
      ],
      "name": "Approval",
      "type": "event"
    },
    {
      "anonymous": false,
      "inputs": [
        {
          "indexed": true,
          "internalType": "address",
          "name": "previousOwner",
          "type": "address"
        },
        {
          "indexed": true,
          "internalType": "address",
          "name": "newOwner",
          "type": "address"
        }
      ],
      "name": "OwnershipTransferred",
      "type": "event"
    },
    {
      "anonymous": false,
      "inputs": [
        {
          "indexed": true,
          "internalType": "address",
          "name": "from",
          "type": "address"
        },
        {
          "indexed": true,
          "internalType": "address",
          "name": "to",
          "type": "address"
        },
        {
          "indexed": false,
          "internalType": "uint256",
          "name": "value",
          "type": "uint256"
        }
      ],
      "name": "Transfer",
      "type": "event"
    },
    {
      "inputs": [
        {
          "internalType": "address",
          "name": "owner",
          "type": "address"
        },
        {
          "internalType": "address",
          "name": "spender",
          "type": "address"
        }
      ],
      "name": "allowance",
      "outputs": [
        {
          "internalType": "uint256",
          "name": "",
          "type": "uint256"
        }
      ],
      "stateMutability": "view",
      "type": "function",
      "constant": true
    },
    {
      "inputs": [
        {
          "internalType": "address",
          "name": "spender",
          "type": "address"
        },
        {
          "internalType": "uint256",
          "name": "value",
          "type": "uint256"
        }
      ],
      "name": "approve",
      "outputs": [
        {
          "internalType": "bool",
          "name": "",
          "type": "bool"
        }
      ],
      "stateMutability": "nonpayable",
      "type": "function"
    },
    {
      "inputs": [
        {
          "internalType": "address",
          "name": "account",
          "type": "address"
        }
      ],
      "name": "balanceOf",
      "outputs": [
        {
          "internalType": "uint256",
          "name": "",
          "type": "uint256"
        }
      ],
      "stateMutability": "view",
      "type": "function",
      "constant": true
    },
    {
      "inputs": [],
      "name": "blAddress",
      "outputs": [
        {
          "internalType": "address",
          "name": "",
          "type": "address"
        }
      ],
      "stateMutability": "view",
      "type": "function",
      "constant": true
    },
    {
      "inputs": [],
      "name": "decimals",
      "outputs": [
        {
          "internalType": "uint8",
          "name": "",
          "type": "uint8"
        }
      ],
      "stateMutability": "view",
      "type": "function",
      "constant": true
    },
    {
      "inputs": [],
      "name": "name",
      "outputs": [
        {
          "internalType": "string",
          "name": "",
          "type": "string"
        }
      ],
      "stateMutability": "view",
      "type": "function",
      "constant": true
    },
    {
      "inputs": [],
      "name": "owner",
      "outputs": [
        {
          "internalType": "address",
          "name": "",
          "type": "address"
        }
      ],
      "stateMutability": "view",
      "type": "function",
      "constant": true
    },
    {
      "inputs": [],
      "name": "renounceOwnership",
      "outputs": [],
      "stateMutability": "nonpayable",
      "type": "function"
    },
    {
      "inputs": [],
      "name": "symbol",
      "outputs": [
        {
          "internalType": "string",
          "name": "",
          "type": "string"
        }
      ],
      "stateMutability": "view",
      "type": "function",
      "constant": true
    },
    {
      "inputs": [],
      "name": "totalSupply",
      "outputs": [
        {
          "internalType": "uint256",
          "name": "",
          "type": "uint256"
        }
      ],
      "stateMutability": "view",
      "type": "function",
      "constant": true
    },
    {
      "inputs": [
        {
          "internalType": "address",
          "name": "newOwner",
          "type": "address"
        }
      ],
      "name": "transferOwnership",
      "outputs": [],
      "stateMutability": "nonpayable",
      "type": "function"
    },
    {
      "inputs": [
        {
          "internalType": "address",
          "name": "account",
          "type": "address"
        },
        {
          "internalType": "uint256",
          "name": "amount",
          "type": "uint256"
        }
      ],
      "name": "mint",
      "outputs": [],
      "stateMutability": "nonpayable",
      "type": "function"
    },
    {
      "inputs": [
        {
          "internalType": "uint256",
          "name": "amount",
          "type": "uint256"
        }
      ],
      "name": "burn",
      "outputs": [],
      "stateMutability": "nonpayable",
      "type": "function"
    },
    {
      "inputs": [
        {
          "internalType": "address",
          "name": "to",
          "type": "address"
        },
        {
          "internalType": "uint256",
          "name": "value",
          "type": "uint256"
        }
      ],
      "name": "transfer",
      "outputs": [
        {
          "internalType": "bool",
          "name": "",
          "type": "bool"
        }
      ],
      "stateMutability": "nonpayable",
      "type": "function"
    },
    {
      "inputs": [
        {
          "internalType": "address",
          "name": "from",
          "type": "address"
        },
        {
          "internalType": "address",
          "name": "to",
          "type": "address"
        },
        {
          "internalType": "uint256",
          "name": "value",
          "type": "uint256"
        }
      ],
      "name": "transferFrom",
      "outputs": [
        {
          "internalType": "bool",
          "name": "",
          "type": "bool"
        }
      ],
      "stateMutability": "nonpayable",
      "type": "function"
    }
  ],
  "bytecode": "0x608060405234801562000010575f80fd5b5060405162000de538038062000de58339810160408190526200003391620001c8565b3383836003620000448382620002db565b506004620000538282620002db565b5050506001600160a01b0381166200008457604051631e4fbdf760e01b81525f600482015260240160405180910390fd5b6200008f81620000b9565b50600680546001600160a01b0319166001600160a01b039290921691909117905550620003a39050565b600580546001600160a01b038381166001600160a01b0319831681179093556040519116919082907f8be0079c531659141344cd1fd0a4f28419497f9722a3daafe3b4186f6b6457e0905f90a35050565b634e487b7160e01b5f52604160045260245ffd5b5f82601f8301126200012e575f80fd5b81516001600160401b03808211156200014b576200014b6200010a565b604051601f8301601f19908116603f011681019082821181831017156200017657620001766200010a565b8160405283815260209250868385880101111562000192575f80fd5b5f91505b83821015620001b5578582018301518183018401529082019062000196565b5f93810190920192909252949350505050565b5f805f60608486031215620001db575f80fd5b83516001600160401b0380821115620001f2575f80fd5b62000200878388016200011e565b9450602086015191508082111562000216575f80fd5b5062000225868287016200011e565b604086015190935090506001600160a01b038116811462000244575f80fd5b809150509250925092565b600181811c908216806200026457607f821691505b6020821081036200028357634e487b7160e01b5f52602260045260245ffd5b50919050565b601f821115620002d6575f81815260208120601f850160051c81016020861015620002b15750805b601f850160051c820191505b81811015620002d257828155600101620002bd565b5050505b505050565b81516001600160401b03811115620002f757620002f76200010a565b6200030f816200030884546200024f565b8462000289565b602080601f83116001811462000345575f84156200032d5750858301515b5f19600386901b1c1916600185901b178555620002d2565b5f85815260208120601f198616915b82811015620003755788860151825594840194600190910190840162000354565b50858210156200039357878501515f19600388901b60f8161c191681555b5050505050600190811b01905550565b610a3480620003b15f395ff3fe608060405234801561000f575f80fd5b50600436106100f0575f3560e01c806342966c681161009357806395d89b411161006357806395d89b41146101fd578063a9059cbb14610205578063dd62ed3e14610218578063f2fde38b14610250575f80fd5b806342966c68146101a957806370a08231146101bc578063715018a6146101e45780638da5cb5b146101ec575f80fd5b806318160ddd116100ce57806318160ddd1461016057806323b872dd14610172578063313ce5671461018557806340c10f1914610194575f80fd5b806306fdde03146100f4578063095ea7b3146101125780630d1086ed14610135575b5f80fd5b6100fc610263565b6040516101099190610859565b60405180910390f35b6101256101203660046108bf565b6102f3565b6040519015158152602001610109565b600654610148906001600160a01b031681565b6040516001600160a01b039091168152602001610109565b6002545b604051908152602001610109565b6101256101803660046108e7565b61030c565b60405160128152602001610109565b6101a76101a23660046108bf565b61032d565b005b6101a76101b7366004610920565b61034e565b6101646101ca366004610937565b6001600160a01b03165f9081526020819052604090205490565b6101a7610366565b6005546001600160a01b0316610148565b6100fc610379565b6101256102133660046108bf565b610388565b610164610226366004610957565b6001600160a01b039182165f90815260016020908152604080832093909416825291909152205490565b6101a761025e366004610937565b6103a8565b60606003805461027290610988565b80601f016020809104026020016040519081016040528092919081815260200182805461029e90610988565b80156102e95780601f106102c0576101008083540402835291602001916102e9565b820191905f5260205f20905b8154815290600101906020018083116102cc57829003601f168201915b5050505050905090565b5f336103008185856103e7565b60019150505b92915050565b5f6103188484846103f9565b61032384848461051d565b5060019392505050565b61033561057a565b6103403383836103f9565b61034a82826105a7565b5050565b610359335f836103f9565b61036333826105db565b50565b61036e61057a565b6103775f61060f565b565b60606004805461027290610988565b5f6103943384846103f9565b61039f33848461051d565b50600192915050565b6103b061057a565b6001600160a01b0381166103de57604051631e4fbdf760e01b81525f60048201526024015b60405180910390fd5b6103638161060f565b6103f48383836001610660565b505050565b60065460405163fe575a8760e01b81526001600160a01b0385811660048301529091169063fe575a8790602401602060405180830381865afa158015610441573d5f803e3d5ffd5b505050506040513d601f19601f8201168201806040525081019061046591906109c0565b806104d7575060065460405163fe575a8760e01b81526001600160a01b0384811660048301529091169063fe575a8790602401602060405180830381865afa1580156104b3573d5f803e3d5ffd5b505050506040513d601f19601f820116820180604052508101906104d791906109c0565b156103f45760405162461bcd60e51b81526020600482015260166024820152751059191c995cdcc81a5cc8189b1858dadb1a5cdd195960521b60448201526064016103d5565b6001600160a01b03831661054657604051634b637e8f60e11b81525f60048201526024016103d5565b6001600160a01b03821661056f5760405163ec442f0560e01b81525f60048201526024016103d5565b6103f4838383610733565b6005546001600160a01b031633146103775760405163118cdaa760e01b81523360048201526024016103d5565b6001600160a01b0382166105d05760405163ec442f0560e01b81525f60048201526024016103d5565b61034a5f8383610733565b6001600160a01b03821661060457604051634b637e8f60e11b81525f60048201526024016103d5565b61034a825f83610733565b600580546001600160a01b038381166001600160a01b0319831681179093556040519116919082907f8be0079c531659141344cd1fd0a4f28419497f9722a3daafe3b4186f6b6457e0905f90a35050565b6001600160a01b0384166106895760405163e602df0560e01b81525f60048201526024016103d5565b6001600160a01b0383166106b257604051634a1406b160e11b81525f60048201526024016103d5565b6001600160a01b038085165f908152600160209081526040808320938716835292905220829055801561072d57826001600160a01b0316846001600160a01b03167f8c5be1e5ebec7d5bd14f71427d1e84f3dd0314c0f7b2291e5b200ac8c7c3b9258460405161072491815260200190565b60405180910390a35b50505050565b6001600160a01b03831661075d578060025f82825461075291906109df565b909155506107cd9050565b6001600160a01b0383165f90815260208190526040902054818110156107af5760405163391434e360e21b81526001600160a01b038516600482015260248101829052604481018390526064016103d5565b6001600160a01b0384165f9081526020819052604090209082900390555b6001600160a01b0382166107e957600280548290039055610807565b6001600160a01b0382165f9081526020819052604090208054820190555b816001600160a01b0316836001600160a01b03167fddf252ad1be2c89b69c2b068fc378daa952ba7f163c4a11628f55a4df523b3ef8360405161084c91815260200190565b60405180910390a3505050565b5f6020808352835180828501525f5b8181101561088457858101830151858201604001528201610868565b505f604082860101526040601f19601f8301168501019250505092915050565b80356001600160a01b03811681146108ba575f80fd5b919050565b5f80604083850312156108d0575f80fd5b6108d9836108a4565b946020939093013593505050565b5f805f606084860312156108f9575f80fd5b610902846108a4565b9250610910602085016108a4565b9150604084013590509250925092565b5f60208284031215610930575f80fd5b5035919050565b5f60208284031215610947575f80fd5b610950826108a4565b9392505050565b5f8060408385031215610968575f80fd5b610971836108a4565b915061097f602084016108a4565b90509250929050565b600181811c9082168061099c57607f821691505b6020821081036109ba57634e487b7160e01b5f52602260045260245ffd5b50919050565b5f602082840312156109d0575f80fd5b81518015158114610950575f80fd5b8082018082111561030657634e487b7160e01b5f52601160045260245ffdfea2646970667358221220d6a5b3f5fa60fc3ab3a82630e34fb365ca48abf8ddee8d460ef5b2502b6330a464736f6c63430008150033",
  "immutableReferences": {},
  "source": "// SPDX-License-Identifier: MIT\r\npragma solidity ^0.8.19;\r\n\r\nimport \"@openzeppelin/contracts/token/ERC20/ERC20.sol\";\r\nimport \"@openzeppelin/contracts/access/Ownable.sol\";\r\nimport \"./interfaces/IBlacklist.sol\";\r\n\r\n\r\ncontract Token is ERC20, Ownable {\r\n    address public blAddress;\r\n    // unit8 public _decimals;\r\n    constructor(\r\n        string memory name_,\r\n        string memory symbol_,\r\n        // unit8 _decimals,\r\n        address blAddress_\r\n    ) ERC20(name_, symbol_) Ownable(_msgSender()) {\r\n        // -decimals = decimals_\r\n        blAddress = blAddress_;\r\n    }\r\n\r\n    \r\n    //  function decimals() public view virtual returns (uint8) {\r\n    //     return _decimals;\r\n    // }\r\n\r\n    function mint(address account, uint256 amount) public onlyOwner {\r\n        _beforeTokenTransfer(_msgSender(), account , amount);\r\n        _mint(account, amount);\r\n    }\r\n\r\n    function burn(uint256 amount) public {\r\n        _beforeTokenTransfer(_msgSender(), address(0), amount);\r\n        _burn(_msgSender(), amount);\r\n    }\r\n\r\n    function transfer(address to, uint256 value) public override returns (bool) {\r\n        _beforeTokenTransfer(_msgSender(), to, value);\r\n        super._transfer(_msgSender(), to , value);\r\n        return true;\r\n\r\n    }\r\n\r\n    function transferFrom(address from, address to, uint256 value) public override returns (bool) {\r\n        _beforeTokenTransfer(from, to, value);\r\n        super._transfer(from, to , value);\r\n        return true;\r\n    }\r\n\r\n\r\n    function _beforeTokenTransfer(address from, address to, uint256 amount) internal view {\r\n        amount;\r\n        if(IBlacklist(blAddress).isBlacklisted(from) || IBlacklist(blAddress).isBlacklisted(to)) {\r\n            revert(\"Address is blacklisted\");\r\n        }\r\n    }\r\n}\r\n",
  "sourcePath": "/mnt/c/Users/vince/Desktop/MasterZ DEV/Homework1/contracts/homework.sol",
  "compiler": {
    "name": "solc",
    "version": "0.8.21+commit.d9974bed.Emscripten.clang"
  },
  "schemaVersion": "3.4.16",
  "updatedAt": "2024-02-14T19:16:13.867Z",
  "networkType": "ethereum",
  "devdoc": {
    "errors": {
      "ERC20InsufficientAllowance(address,uint256,uint256)": [
        {
          "details": "Indicates a failure with the `spender`s `allowance`. Used in transfers.",
          "params": {
            "allowance": "Amount of tokens a `spender` is allowed to operate with.",
            "needed": "Minimum amount required to perform a transfer.",
            "spender": "Address that may be allowed to operate on tokens without being their owner."
          }
        }
      ],
      "ERC20InsufficientBalance(address,uint256,uint256)": [
        {
          "details": "Indicates an error related to the current `balance` of a `sender`. Used in transfers.",
          "params": {
            "balance": "Current balance for the interacting account.",
            "needed": "Minimum amount required to perform a transfer.",
            "sender": "Address whose tokens are being transferred."
          }
        }
      ],
      "ERC20InvalidApprover(address)": [
        {
          "details": "Indicates a failure with the `approver` of a token to be approved. Used in approvals.",
          "params": {
            "approver": "Address initiating an approval operation."
          }
        }
      ],
      "ERC20InvalidReceiver(address)": [
        {
          "details": "Indicates a failure with the token `receiver`. Used in transfers.",
          "params": {
            "receiver": "Address to which tokens are being transferred."
          }
        }
      ],
      "ERC20InvalidSender(address)": [
        {
          "details": "Indicates a failure with the token `sender`. Used in transfers.",
          "params": {
            "sender": "Address whose tokens are being transferred."
          }
        }
      ],
      "ERC20InvalidSpender(address)": [
        {
          "details": "Indicates a failure with the `spender` to be approved. Used in approvals.",
          "params": {
            "spender": "Address that may be allowed to operate on tokens without being their owner."
          }
        }
      ],
      "OwnableInvalidOwner(address)": [
        {
          "details": "The owner is not a valid owner account. (eg. `address(0)`)"
        }
      ],
      "OwnableUnauthorizedAccount(address)": [
        {
          "details": "The caller account is not authorized to perform an operation."
        }
      ]
    },
    "events": {
      "Approval(address,address,uint256)": {
        "details": "Emitted when the allowance of a `spender` for an `owner` is set by a call to {approve}. `value` is the new allowance."
      },
      "Transfer(address,address,uint256)": {
        "details": "Emitted when `value` tokens are moved from one account (`from`) to another (`to`). Note that `value` may be zero."
      }
    },
    "kind": "dev",
    "methods": {
      "allowance(address,address)": {
        "details": "See {IERC20-allowance}."
      },
      "approve(address,uint256)": {
        "details": "See {IERC20-approve}. NOTE: If `value` is the maximum `uint256`, the allowance is not updated on `transferFrom`. This is semantically equivalent to an infinite approval. Requirements: - `spender` cannot be the zero address."
      },
      "balanceOf(address)": {
        "details": "See {IERC20-balanceOf}."
      },
      "decimals()": {
        "details": "Returns the number of decimals used to get its user representation. For example, if `decimals` equals `2`, a balance of `505` tokens should be displayed to a user as `5.05` (`505 / 10 ** 2`). Tokens usually opt for a value of 18, imitating the relationship between Ether and Wei. This is the default value returned by this function, unless it's overridden. NOTE: This information is only used for _display_ purposes: it in no way affects any of the arithmetic of the contract, including {IERC20-balanceOf} and {IERC20-transfer}."
      },
      "name()": {
        "details": "Returns the name of the token."
      },
      "owner()": {
        "details": "Returns the address of the current owner."
      },
      "renounceOwnership()": {
        "details": "Leaves the contract without owner. It will not be possible to call `onlyOwner` functions. Can only be called by the current owner. NOTE: Renouncing ownership will leave the contract without an owner, thereby disabling any functionality that is only available to the owner."
      },
      "symbol()": {
        "details": "Returns the symbol of the token, usually a shorter version of the name."
      },
      "totalSupply()": {
        "details": "See {IERC20-totalSupply}."
      },
      "transfer(address,uint256)": {
        "details": "See {IERC20-transfer}. Requirements: - `to` cannot be the zero address. - the caller must have a balance of at least `value`."
      },
      "transferFrom(address,address,uint256)": {
        "details": "See {IERC20-transferFrom}. Emits an {Approval} event indicating the updated allowance. This is not required by the EIP. See the note at the beginning of {ERC20}. NOTE: Does not update the allowance if the current allowance is the maximum `uint256`. Requirements: - `from` and `to` cannot be the zero address. - `from` must have a balance of at least `value`. - the caller must have allowance for ``from``'s tokens of at least `value`."
      },
      "transferOwnership(address)": {
        "details": "Transfers ownership of the contract to a new account (`newOwner`). Can only be called by the current owner."
      }
    },
    "version": 1
  },
  "userdoc": {
    "kind": "user",
    "methods": {},
    "version": 1
  }
}